{
  "contractName": "SimpleStorage",
  "abi": [
    {
      "constant": false,
      "inputs": [
        {
          "internalType": "uint256",
          "name": "x",
          "type": "uint256"
        }
      ],
      "name": "set",
      "outputs": [],
      "payable": false,
      "stateMutability": "nonpayable",
      "type": "function"
    },
    {
      "constant": false,
      "inputs": [
        {
          "internalType": "uint256",
          "name": "y",
          "type": "uint256"
        }
      ],
      "name": "explode",
      "outputs": [],
      "payable": false,
      "stateMutability": "nonpayable",
      "type": "function"
    },
    {
      "constant": true,
      "inputs": [],
      "name": "get",
      "outputs": [
        {
          "internalType": "uint256",
          "name": "",
          "type": "uint256"
        }
      ],
      "payable": false,
      "stateMutability": "view",
      "type": "function"
    }
  ],
  "bytecode": "0x608060405234801561001057600080fd5b50610127806100206000396000f3fe6080604052348015600f57600080fd5b5060043610603c5760003560e01c806334c0e86f14604157806360fe47b114606c5780636d4ce63c146097575b600080fd5b606a60048036036020811015605557600080fd5b810190808035906020019092919050505060b3565b005b609560048036036020811015608057600080fd5b810190808035906020019092919050505060df565b005b609d60e9565b6040518082815260200191505060405180910390f35b7fffffffffffffffffffffffffffffffffffffffffffffffffffffffffffffffff810260008190555050565b8060008190555050565b6000805490509056fea265627a7a7231582076dd6fc95b29dd20954aa611985f824fbfd91692838fe5db4c1e3724244eb80f64736f6c63430005100032",
  "source": "pragma solidity >=0.4.21 <0.7.0;\n\ncontract SimpleStorage {\n  uint storedData;\n\n  function set(uint x) public {\n    storedData = x;\n  }\n\n  function explode(uint y) public {\n    storedData = y * 115792089237316195423570985008687907853269984665640564039457584007913129639935;\n  }\n\n  function get() public view returns (uint) {\n    return storedData;\n  }\n}\n",
  "sourcePath": "/Users/bluer/Developer/truffle-simplestorage/contracts/SimpleStorage.sol",
  "compiler": {
    "name": "solc",
    "version": "0.5.16+commit.9c3226ce.Emscripten.clang"
  },
  "schemaVersion": "3.2.0",
  "updatedAt": "2020-06-12T18:10:49.569Z",
  "devdoc": {
    "methods": {}
  },
  "userdoc": {
    "methods": {}
  }
}