{
  "contractName": "SimpleStorage",
  "abi": [
    {
      "constant": false,
      "inputs": [
        {
          "internalType": "uint256",
          "name": "x",
          "type": "uint256"
        }
      ],
      "name": "set",
      "outputs": [],
      "payable": false,
      "stateMutability": "nonpayable",
      "type": "function"
    },
    {
      "constant": false,
      "inputs": [
        {
          "internalType": "uint256",
          "name": "y",
          "type": "uint256"
        }
      ],
      "name": "explode",
      "outputs": [],
      "payable": false,
      "stateMutability": "nonpayable",
      "type": "function"
    },
    {
      "constant": true,
      "inputs": [],
      "name": "get",
      "outputs": [
        {
          "internalType": "uint256",
          "name": "",
          "type": "uint256"
        }
      ],
      "payable": false,
      "stateMutability": "view",
      "type": "function"
    }
  ],
  "bytecode": "0x608060405234801561001057600080fd5b5061019f806100206000396000f3fe608060405234801561001057600080fd5b50600436106100415760003560e01c806334c0e86f1461004657806360fe47b1146100745780636d4ce63c146100a2575b600080fd5b6100726004803603602081101561005c57600080fd5b81019080803590602001909291905050506100c0565b005b6100a06004803603602081101561008a57600080fd5b8101908080359060200190929190505050610157565b005b6100aa610161565b6040518082815260200191505060405180910390f35b7fffffffffffffffffffffffffffffffffffffffffffffffffffffffffffffffff81016000819055506040517f08c379a00000000000000000000000000000000000000000000000000000000081526004018080602001828103825260048152602001807f626f6f6d0000000000000000000000000000000000000000000000000000000081525060200191505060405180910390fd5b8060008190555050565b6000805490509056fea265627a7a72315820a0c617f2f5640ca37487e5f1f0b6426be88b728efe0788411eb8801ab87ef7c764736f6c63430005100032",
  "source": "pragma solidity >=0.4.21 <0.7.0;\n\ncontract SimpleStorage {\n  uint storedData;\n\n  function set(uint x) public {\n    storedData = x;\n  }\n\n  function explode(uint y) public {\n    storedData = y + 115792089237316195423570985008687907853269984665640564039457584007913129639935;\n    revert(\"boom\");\n  }\n\n  function get() public view returns (uint) {\n    return storedData;\n  }\n}\n",
  "sourcePath": "/Users/bluer/Developer/truffle-simplestorage/contracts/SimpleStorage.sol",
  "compiler": {
    "name": "solc",
    "version": "0.5.16+commit.9c3226ce.Emscripten.clang"
  },
  "schemaVersion": "3.2.0",
  "updatedAt": "2020-06-12T18:31:10.128Z",
  "networkType": "ethereum",
  "devdoc": {
    "methods": {}
  },
  "userdoc": {
    "methods": {}
  }
}